:100000000C9440000C945D000C945D000C945D0019
:100010000C945D000C945D000C945D000C945D00EC
:100020000C945D000C945D000C945D000C945D00DC
:100030000C945D000C945D000C945D000C945D00CC
:100040000C945D000C945D005701E2016D01FF040A
:10005000FF040E03FF04FF04FF04FF04FF04FF047A
:10006000FF04FF04FF041902EC048E03F5034803A8
:10007000AE047404B1029D02D802C9028002F202E9
:1000800011241FBECFE5D4E0DEBFCDBF11E0A0E656
:10009000B0E0E4EAFAE102C005900D92A237B107A0
:1000A000D9F712E0A2E7B1E001C01D92A838B1076C
:1000B000E1F70E94D7000C94500D0C94000021EE43
:1000C0008030920710F063E023C0BC0180E090E034
:1000D0000E94020A20E030E040EC51E40E947807E0
:1000E00021EB31EA41E154E30E9478079B01AC0126
:1000F00060E070E080E89FE30E94720825E535E546
:1001000045E55FE30E941A070E94B30C0E94A20516
:1001100070E080E090E00E94020A9B01AC0160E088
:1001200070E08EE793E40E94C60C0E94A205DC01F9
:10013000CB0108950F931F938C018BE160E00E9427
:100140007E058091690060E00E947E05812F60E05D
:100150000E947E05802F60E00E947E058EE060E0B8
:100160000E947E051F910F910895FF920F931F9398
:10017000DF93CF9300D000D0CDB7DEB780EFF82E5D
:100180008E010F5F1F4FF9821A821B821C82C801E9
:100190000E9421058C818130B1F30F900F900F9058
:1001A0000F90CF91DF911F910F91FF9008952F92A3
:1001B0003F924F925F926F927F928F929F92AF92F7
:1001C000BF92CF92DF92EF92FF920F931F93DF9334
:1001D000CF93CDB7DEB769970FB6F894DEBF0FBEE9
:1001E000CDBF8FEF84BB85BB0E943E050E941605E4
:1001F000198A188A22243324210181E00E94910562
:1002000080E00E9491058B31C1F780E00E9491054A
:100210008093690080E00E9491058B8B1A8A80E0B0
:100220000E949105E82EFF242A893B89E22AF32ABD
:1002300080E00E9491058E3001F700E010E009C0D7
:1002400080E00E949105F801EB58FE4F80830F5F1C
:100250001F4F0E151F05A0F381E00E949105182F76
:1002600080E00E949105181789F082E090E00E94DA
:100270009A0080EB60E00E947E0580EB60E00E94C7
:100280007E0580E061E00E947E05B7CF8091750118
:1002900090E0FC013197EC31F10508F0B0C3EC5D62
:1002A000FF4FEE0FFF1F0590F491E02D09948BE0B6
:1002B00090E00E949A0081E060E00E947E0580E06C
:1002C00060E00E947E0588E060E00E947E0580E696
:1002D00090E068E00E946D059FC3809176018039AF
:1002E00071F483E090E00E949A0083E060E00E9455
:1002F0007E0580E060E00E947E0581E08AC38091F7
:100300007601813971F483E090E00E949A0083E0E5
:1003100060E00E947E0580E060E00E947E0582E051
:1003200078C380917601823971F483E090E00E9475
:100330009A0083E060E00E947E0580E060E00E9419
:100340007E058AE066C3809176018A3971F483E084
:1003500090E00E949A0083E060E00E947E0580E0C9
:1003600060E00E947E058FEF54C38091760188394A
:1003700089F483E090E00E949A0083E060E00E94AC
:100380007E0580E060E00E947E0580E195E70E94A6
:100390005F003FC3809176018F3971F483E090E074
:1003A0000E949A0083E060E00E947E0580E060E0A9
:1003B0000E947E0589892DC382E090E00E949A0008
:1003C00083E02DC080917601803969F180917601BA
:1003D000813949F180917601823929F18091760144
:1003E0008A3909F1809176018E3941F48091770143
:1003F000188A8823C1F431E0388B15C080917601CA
:10040000883989F0809176018F3921F480917701C4
:10041000898B09C082E090E00E949A0082E060E04F
:100420000E947E056BC082E090E00E949A0082E00C
:10043000E1C29889992319F088B3806102C088B31A
:100440008F7E88BB6091780170E080E090E00E9430
:10045000020A5B016C0120E030E546EE54E40E94A4
:1004600078077B018C0120E030E040E85FE30E94E8
:100470007E0988231CF461E070E023C0C801B70145
:1004800020E03FEF4FE757E40E941E091816ACF436
:10049000C601B50120E030E040E251E40E94780757
:1004A0000E94A20506C088EB90E00197F1F7615029
:1004B000704061157105B9F707C0C801B7010E9406
:1004C000A205CB010197F1F780917A018093720127
:1004D0008CEA898383E58A831B821C82CE01019684
:1004E0000E94210582E090E00E949A0080E160E095
:1004F0000E947E058B81833509F47FC280EC89C21E
:1005000080EF85BB80E3898385E08A8380917901D0
:100510008B838FE08C83CE0101960E94210584E0BD
:1005200090E00E949A008BE160E00E947E0580E0EE
:1005300060E00E947E058C815DC280EF85BB80916A
:1005400077018983809178018A831B821C82CE0186
:1005500001960E94210584E090E00E949A0088E1C3
:100560004FC080EF85BB80917601898380917701B0
:100570008A83809178018B83809179018C83CE016D
:1005800001960E94210583E090E00E949A0087E195
:1005900024C088E589831A821B821C82CE010196C1
:1005A0000E94210584E090E00E949A008AE128C020
:1005B000809176018983809177018A838091780187
:1005C0008B83809179018C83CE0101960E94210555
:1005D00083E090E00E949A0089E160E00E947E053D
:1005E00080E008C288E389831A821B821C82CE01C4
:1005F00001960E94210584E090E00E949A008CE11F
:1006000060E00E947E0580E060E00E947E058091AF
:100610007601FE01E80FF11D8081ECC12091790186
:1006200030E040E050E08091780190917701609156
:1006300076018D8B1C8AEC89FD891F01442437FCCF
:100640004094542C99279F8B1E8AEE89FF89CF01F5
:10065000AA2797FDA095BA2F282A392A4A2A5B2A69
:10066000222A332A442A552A6627698F188E288D14
:10067000398DC901AA2797FDA095BA2F282A392AB2
:100680004A2A5B2A82E090E00E949A0086E0B2C18A
:10069000809176018F871E8680917701A82EBB24DA
:1006A0008E859F85A82AB92AC50103960E949A00C3
:1006B00084E160E00E947E0580E060E00E947E05AB
:1006C000CC24DD2427C090E299831127052DF42C3A
:1006D000E32CEA822B821C82CE0101960E94210526
:1006E0008C8160E00E947E05E8E2E983EA822B8249
:1006F0001C82CE0101960E9421058C8160E00E943F
:100700007E050894211C311C411C511C22E030E064
:10071000C20ED31ECA14DB04B0F26FC182E090E0B7
:100720000E949A008CEA898380E88A831B821C825B
:10073000CE0101960E94210580917701882319F04E
:100740000E94B50042C06091760170E080E090E0C8
:100750000E94020A5B016C0120E030E546EE54E4A1
:100760000E9478077B018C0120E030E040E85FE3E5
:100770000E947E0988231CF461E070E023C0C80158
:10078000B70120E03FEF4FE757E40E941E0918161B
:10079000ACF4C601B50120E030E040E251E40E9433
:1007A00078070E94A20506C088EB90E00197F1F758
:1007B0006150704061157105B9F707C0C801B701F4
:1007C0000E94A205CB010197F1F782E160E00E944F
:1007D0007E0580E060E00E947E0580E061E00E948E
:1007E0007E052224332421011BC1809176018C8750
:1007F0001B8680917701E82FF0E02B853C852E2B1E
:100800003F2B3A8729878091780180FF03C0809130
:100810007A0102C080917B018824992459C089857E
:100820009A85881999098034910518F030E43D873C
:1008300003C0898588198D876AE0662E712C680C43
:10084000791C6201510127C090E4998311270D2D75
:10085000FC2CEB2CEA82AB82F301EB58FE4F80813B
:100860008C83CE0101960E942105E8E4E983EA82A7
:10087000AB82F301EA58FE4F80818C83CE01019652
:100880000E9421050894A11CB11CC11CD11C22E0AE
:1008900030E0620E731E8A2D82193D858317A0F207
:1008A000832F90E0880F991F880E991E230E311C0C
:1008B000411C511CC10180549040ECE4E9839A83AF
:1008C0008B831C82CE0101960E9421050E94B500F7
:1008D00029853A858216930608F4A1CF82E090E03C
:1008E0000E949A0083E186C08091760188871F82EA
:1008F00080917701A82EBB248F819885A82AB92AD8
:10090000C50103960E949A0086E160E00E947E0580
:1009100080E060E00E947E0582017101CC24DD242C
:1009200019C090EA9983BB27A12F902F8F2D8A831E
:10093000EB821C82CE0101960E9421058C8160E031
:100940000E947E050894E11CF11C011D111D0894F4
:10095000C11CD11CCA14DB0420F336C0809176017F
:100960008E831D8280917701A82EBB24ED81FE81AC
:10097000AE2ABF2A83E090E00E949A0085E160E001
:100980000E947E0580E060E00E947E058201710188
:10099000CC24DD2416C0F0ECF983BB27A12F902FC7
:1009A0008F2D8A83EB8221E02C83CE0101960E9459
:1009B00021050894E11CF11C011D111D0894C11CA6
:1009C000D11CCA14DB0438F3C501A0E0B0E0280E46
:1009D000391E4A1E5B1E11C082E090E00E949A0000
:1009E0003889332319F088B38F7E02C088B38061C1
:1009F00088BB81E160E00E947E0580E00AC082E061
:100A000090E00E949A008091750160E00E947E054E
:100A100089EC60E00E947E0580E061E00E947E0536
:100A2000809169008F5F80936900E7CB80EB87BB83
:100A300082E58DB91EB808958FB9779BFECF8FB12F
:100A40000895FC0180818FB9779BFECF8FB18083A1
:100A500081818FB9779BFECF8FB1818382818FB9DE
:100A6000779BFECF8FB1828383818FB9779BFECF37
:100A70008FB18383089581708EB9089510BC83E08F
:100A800089B9599888E18AB908955D9BFECF8CB9E0
:100A900008955F9BFECF8CB10895382F6AE00E94C5
:100AA000700C282F5D9BFECF822F6AE00E94700C95
:100AB0000E94700C905D9CB95D9BFECF822F6AE016
:100AC0000E94700C905D9CB95D9BFECF832F6AE005
:100AD0000E94700C905D9CB9089540917401FC01D6
:100AE00090E007C0808148275D9BFECF8CB99F5F57
:100AF00031969617B8F3409374010895909174015C
:100B0000662331F05D9BFECF9CB91092740106C044
:100B10009827909374015D9BFECF8CB980917401EE
:100B20000895882349F45F9BFECF9CB180917301A7
:100B300089278093730104C090917301109273010F
:100B4000892F0895EF92FF920F931F937B018C01E1
:100B500020E030E040E05FE40E944E0988238CF002
:100B6000C801B70120E030E040E05FE40E941A07CE
:100B70000E94AE099B01AC012050304040405048DB
:100B800006C0C801B7010E94AE099B01AC01B901C2
:100B9000CA011F910F91FF90EF900895A0E0B0E07F
:100BA000E4EDF5E00C947C0CDC012B01FA019C9146
:100BB000923008F439C1EB018881823008F433C1E6
:100BC000943069F4843009F02FC111969C911197EB
:100BD0008981981709F428C1AAE6B0E025C18430BC
:100BE00009F421C18230A9F4923009F01DC19A01A3
:100BF000AD0188E0EA010990AE01E90109929E0188
:100C00008150C1F7E201898111969C9189238183EA
:100C100008C1923009F407C112962D903C901397A9
:100C2000EB018A819B811496AD90BD90CD90DC90B4
:100C30001797EC80FD800E811F819101281B390BD5
:100C4000B90137FF04C066277727621B730B603238
:100C500071050CF061C0121613066CF537014801DE
:100C6000062E04C096948794779467940A94D2F7DA
:100C700021E030E040E050E004C0220F331F441F69
:100C8000551F6A95D2F721503040404050402E21E8
:100C90003F2140235123211531054105510521F004
:100CA00021E030E040E050E079018A01E628F728B1
:100CB000082919293CC0232BD1F1260E371E3501F6
:100CC0004601062E04C096948794779467940A94FC
:100CD000D2F721E030E040E050E004C0220F331FA3
:100CE000441F551F6A95D2F7215030404040504074
:100CF0002A213B214C215D2121153105410551055A
:100D000021F021E030E040E050E059016A01A628DE
:100D1000B728C828D9280BC0821593052CF01C01D0
:100D2000AA24BB24650103C0EE24FF248701119689
:100D30009C91D20111968C91981709F445C0992382
:100D400039F0A80197012A193B094C095D0906C031
:100D5000A60195012E193F09400B510B57FD08C004
:100D600011823382228224833583468357831DC0B8
:100D700081E081833382228288279927DC01821BCC
:100D8000930BA40BB50B84839583A683B7830DC007
:100D9000220F331F441F551F2483358346835783F7
:100DA0008281938101979383828324813581468157
:100DB0005781DA01C9010197A109B1098F5F9F4FDE
:100DC000AF4FBF4328F30BC0918333822282EA0CDA
:100DD000FB1C0C1D1D1DE482F5820683178383E036
:100DE0008083248135814681578157FF1AC0C9010C
:100DF000AA2797FDA095BA2F81709070A070B0704F
:100E00005695479537952795822B932BA42BB52B79
:100E100084839583A683B78382819381019693838C
:100E20008283DF0101C0D201CD01CDB7DEB7E2E19F
:100E30000C94980CA0E2B0E0E0E2F7E00C94880C8F
:100E400069837A838B839C832D833E834F8358876A
:100E5000E9E0EE2EF12CEC0EFD1ECE010196B7015D
:100E60000E949F0B8E010F5E1F4FCE010596B801A9
:100E70000E949F0B8A8991E089278A8BC701B8015C
:100E8000AE01475E5F4F0E94CE050E94CA0AA0963F
:100E9000E6E00C94A40CA0E2B0E0E1E5F7E00C94ED
:100EA000880C69837A838B839C832D833E834F8355
:100EB0005887F9E0EF2EF12CEC0EFD1ECE010196C5
:100EC000B7010E949F0B8E010F5E1F4FCE0105964A
:100ED000B8010E949F0BC701B801AE01475E5F4F8A
:100EE0000E94CE050E94CA0AA096E6E00C94A40CCB
:100EF000A0E2B0E0EEE7F7E00C947C0C69837A8323
:100F00008B839C832D833E834F835887CE0101962C
:100F1000BE01675F7F4F0E949F0BCE010596BE0109
:100F20006F5E7F4F0E949F0B9985923088F0898970
:100F30008230C8F0943019F4823051F404C0843007
:100F400029F4923081F48AE690E0C6C0923049F4E8
:100F500020E09A858A89981321E02A87CE01099694
:100F6000BBC0823049F420E09A858A89981321E039
:100F70002A8BCE014196B0C02D843E844F84588880
:100F80006D887E888F88988CEE24FF248701AA24A0
:100F9000BB24650140E050E060E070E0E0E0F0E09C
:100FA000C10181709070892BE9F0E60CF71C081DD7
:100FB000191D9A01AB012A0D3B1D4C1D5D1D80E0E2
:100FC00090E0A0E0B0E0E614F7040805190520F46D
:100FD00081E090E0A0E0B0E0BA01A901480F591FFC
:100FE0006A1F7B1FAA0CBB1CCC1CDD1C97FE08C013
:100FF00081E090E0A0E0B0E0A82AB92ACA2ADB2A62
:101000003196E032F10549F0660C771C881C991C7A
:101010005694479437942794C3CFFA85EA892B894D
:101020003C898B859C85280F391F2E5F3F4F17C049
:10103000CA0181709070892B61F016950795F7941D
:10104000E79480E090E0A0E0B0E8E82AF92A0A2BD3
:101050001B2B76956795579547952F5F3F4F77FDEB
:10106000E7CF0CC0440F551F661F771F17FD416067
:10107000EE0CFF1C001F111F21503040403090E04B
:10108000590790E0690790E4790760F32B8F3C8F54
:10109000DB01CA018F779070A070B0708034910529
:1010A000A105B10561F447FD0AC0E114F104010591
:1010B000110529F0405C5F4F6F4F7F4F40781A8ECB
:1010C000FE1711F081E08A8F4D8F5E8F6F8F78A3AE
:1010D00083E0898FCE0149960E94CA0AA096E2E178
:1010E0000C94980CA8E1B0E0E8E7F8E00C94840CCC
:1010F00069837A838B839C832D833E834F835887B8
:10110000B9E0EB2EF12CEC0EFD1ECE010196B701DD
:101110000E949F0B8E010F5E1F4FCE010596B801F6
:101120000E949F0B2985223008F47EC03989323015
:1011300010F4B8017CC08A859A8989278A8724306F
:1011400011F0223031F4231709F06EC06AE670E026
:101150006EC0343039F41D861E861F86188A1C86A0
:101160001B8604C0323021F484E08987B7015FC058
:101170002B853C858B899C89281B390B3C872B87C9
:10118000ED84FE840F851889AD88BE88CF88D88C01
:10119000EA14FB040C051D0540F4EE0CFF1C001FB7
:1011A000111F215030403C872B8720E030E040E089
:1011B00050E080E090E0A0E0B0E460E070E0EA148D
:1011C000FB040C051D0540F0282B392B4A2B5B2B0B
:1011D000EA18FB080C091D09B695A7959795879500
:1011E000EE0CFF1C001F111F6F5F7F4F6F317105E9
:1011F00031F7DA01C9018F779070A070B070803438
:101200009105A105B10561F427FD0AC0E114F104BF
:101210000105110529F0205C3F4F4F4F5F4F2078AB
:101220002D873E874F87588BBE01675F7F4FCB016D
:101230000E94CA0A6896EAE00C94A00CA8E1B0E00B
:10124000E4E2F9E00C94880C69837A838B839C83B5
:101250002D833E834F83588789E0E82EF12CEC0ED6
:10126000FD1ECE010196B7010E949F0B8E010F5EFD
:101270001F4FCE010596B8010E949F0B89858230D1
:1012800040F08989823028F0C701B8010E94170C0C
:1012900001C08FEF6896E6E00C94A40CA8E1B0E0E2
:1012A000E4E5F9E00C94880C69837A838B839C8352
:1012B0002D833E834F83588789E0E82EF12CEC0E76
:1012C000FD1ECE010196B7010E949F0B8E010F5E9D
:1012D0001F4FCE010596B8010E949F0B8985823071
:1012E00040F08989823028F0C701B8010E94170CAC
:1012F00001C08FEF6896E6E00C94A40CA8E1B0E082
:10130000E4E8F9E00C94880C69837A838B839C83EE
:101310002D833E834F83588789E0E82EF12CEC0E15
:10132000FD1ECE010196B7010E949F0B8E010F5E3C
:101330001F4FCE010596B8010E949F0B8985823010
:1013400040F08989823028F0C701B8010E94170C4B
:1013500001C081E06896E6E00C94A40CACE0B0E03B
:10136000E4EBF9E00C948C0C69837A838B839C8387
:10137000CE010196BE016B5F7F4F0E949F0B8D8156
:10138000823061F1823050F1843021F48E818823E3
:1013900051F12EC02F81388537FD20C06E812F314D
:1013A00031051CF06623F9F023C08EE190E0821B2A
:1013B000930B29853A854B855C8504C056954795E6
:1013C000379527958A95D2F76623B1F050954095C9
:1013D000309521953F4F4F4F5F4F0EC020E030E0DA
:1013E00040E050E009C02FEF3FEF4FEF5FE704C050
:1013F00020E030E040E050E8B901CA012C96E2E07C
:101400000C94A80CA8E0B0E0E8E0FAE00C94840C9E
:101410007B018C01611571058105910519F482E04C
:10142000898360C083E089838EE1C82ED12CDC8261
:10143000CB82ED82FE820F831887C801B7010E941C
:101440007B0AFC013197F7FF3BC0222733272E1B75
:101450003F0B57016801022E04C0D694C794B7947D
:10146000A7940A94D2F740E050E060E070E081E099
:1014700090E0A0E0B0E004C0880F991FAA1FBB1F36
:101480002A95D2F70197A109B1098E219F21A023A6
:10149000B1230097A105B10521F041E050E060E0E3
:1014A00070E04A295B296C297D294D835E836F8317
:1014B00078878EE190E08E1B9F0B9C838B8312C0FC
:1014C000309781F00E2E04C0EE0CFF1C001F111F80
:1014D0000A94D2F7ED82FE820F831887CE1ADF0AB4
:1014E000DC82CB821A82CE0101960E94CA0A28961B
:1014F000EAE00C94A00CEF92FF920F931F937B01F4
:101500008C0180E0E81680E0F80681E0080780E0C2
:10151000180788F48FEFE816F1040105110531F082
:1015200028F088E090E0A0E0B0E017C080E090E014
:10153000A0E0B0E012C080E0E81680E0F80680E0AD
:10154000080781E0180728F088E190E0A0E0B0E00B
:1015500004C080E190E0A0E0B0E020E230E040E0B4
:1015600050E0281B390B4A0B5B0B04C016950795FE
:10157000F794E7948A95D2F7F701EE58FF4F8081F0
:10158000281B310941095109C9011F910F91FF9091
:10159000EF900895DF92EF92FF920F931F93FC015B
:1015A000E480F58006811781D1808081823048F403
:1015B00080E090E0A0E1B0E0E82AF92A0A2B1B2B9A
:1015C000A5C0843009F49FC0823021F4EE24FF24AA
:1015D000870105C0E114F1040105110519F4E0E0EB
:1015E000F0E096C0628173819FEF623879070CF05A
:1015F0005BC022E83FEF261B370B2A3131052CF068
:1016000020E030E040E050E02AC0B801A701022EFF
:1016100004C076956795579547950A94D2F781E06F
:1016200090E0A0E0B0E004C0880F991FAA1FBB1F84
:101630002A95D2F70197A109B1098E219F21A023F4
:10164000B1230097A105B10521F081E090E0A0E071
:10165000B0E09A01AB01282B392B4A2B5B2BDA0126
:10166000C9018F779070A070B07080349105A1058A
:10167000B10539F427FF09C0205C3F4F4F4F5F4F42
:1016800004C0215C3F4F4F4F5F4FE0E0F0E020305F
:10169000A0E03A07A0E04A07A0E45A0710F0E1E012
:1016A000F0E079018A0127C06038710564F5FB011B
:1016B000E158FF4FD801C7018F779070A070B070CC
:1016C00080349105A105B10539F4E7FE0DC080E431
:1016D00090E0A0E0B0E004C08FE390E0A0E0B0E0D4
:1016E000E80EF91E0A1F1B1F17FF05C01695079568
:1016F000F794E794319687E016950795F794E79469
:101700008A95D1F705C0EE24FF248701EFEFF0E0C2
:101710006E2F679566276795902F9F77D794DD2466
:10172000D7948E2F8695492F462B582F5D29B701C8
:10173000CA011F910F91FF90EF90DF900895FC0177
:10174000DB01408151812281622F6F7770E0221F7F
:101750002227221F9381892F880F822B282F30E088
:10176000991F9927991F11969C931197211531055F
:10177000A9F5411551056105710511F482E037C0E5
:1017800082E89FEF13969C938E9312979A01AB0178
:1017900067E0220F331F441F551F6A95D1F783E07E
:1017A0008C930DC0220F331F441F551F12968D912D
:1017B0009C911397019713969C938E9312972030C8
:1017C00080E0380780E0480780E4580758F3149613
:1017D0002D933D934D935C93179708952F3F3105BB
:1017E00079F4411551056105710519F484E08C9374
:1017F000089564FF03C081E08C9312C01C9210C056
:101800002F57304013963C932E93129783E08C937E
:1018100087E0440F551F661F771F8A95D1F77064C4
:1018200014964D935D936D937C93179708951F9332
:10183000DC01FB019C91923008F447C0808182302A
:1018400008F443C0943051F411961C91843099F5FA
:101850008181682F70E0611B71093FC0843021F0E5
:10186000923031F48230B9F18181882389F12DC021
:1018700011961C9111978230F1F081811817D9F4DB
:1018800012962D913C911397828193818217930731
:1018900094F028173907BCF014968D919D910D9006
:1018A000BC91A02D248135814681578128173907A5
:1018B0004A075B0718F4112341F00AC08217930707
:1018C000A407B50740F4112319F061E070E005C0EA
:1018D0006FEF7FEF02C060E070E0CB011F910895D1
:1018E000991B79E004C0991F961708F0961B881F72
:1018F0007A95C9F7809508952F923F924F925F9203
:101900006F927F928F929F92AF92BF92CF92DF920F
:10191000EF92FF920F931F93CF93DF93CDB7DEB774
:10192000CA1BDB0B0FB6F894DEBF0FBECDBF099408
:101930002A88398848885F846E847D848C849B845F
:10194000AA84B984C884DF80EE80FD800C811B816D
:10195000AA81B981CE0FD11D0FB6F894DEBF0FBE9C
:10196000CDBFED0108955CD080F09F3740F4911118
:101970000EF46EC060E070E080E89FE3089526F00A
:101980001B16611D711D811D20C03AC0990FBB0B34
:10199000550FAA0BE0E8FEEF16161706E807F90741
:1019A00070F012161306E407F50760F0BA1754F04A
:1019B00031F42617370748075907A7951BF4B901D3
:1019C000CA01BA2FB69597950895882371F47723A5
:1019D00021F09850872B762F07C0662311F49927A2
:1019E0000DC09051862B70E060E02AF09A95660F4A
:1019F000771F881FDAF7880F9695879597F90895CE
:101A00009F3F49F0915028F4869577956795B79553
:101A10009F5F80389F4F880F9695879597F9089517
:101A200025D0A0F0BEE7B91788F4BB279F3860F433
:101A30001616B11D672F782F8827985FF7CF8695E8
:101A400077956795B11D93959639C8F30895E894F5
:101A5000BB2766277727CB0197F9089557FD905844
:101A6000440F551F59F05F3F71F04795880F97FB62
:101A7000991F61F09F3F79F087950895121613061C
:101A80001406551FF2CF4695F1DF08C0161617064B
:101A90001806991FF1CF8695710561050894089580
:041AA000F894FFCFE8
:101AA4004156524953505F320001000000000000CB
:101AB40000000001020203030303040404040404F9
:101AC40004040505050505050505050505050505C4
:101AD40005050606060606060606060606060606A4
:101AE4000606060606060606060606060606060692
:101AF4000606070707070707070707070707070774
:101B04000707070707070707070707070707070761
:101B14000707070707070707070707070707070751
:101B24000707070707070707070707070707070741
:101B34000707080808080808080808080808080823
:101B44000808080808080808080808080808080811
:101B54000808080808080808080808080808080801
:101B640008080808080808080808080808080808F1
:101B740008080808080808080808080808080808E1
:101B840008080808080808080808080808080808D1
:101B940008080808080808080808080808080808C1
:101BA40008080808080808080808080808080808B1
:021BB40008081F
:00000001FF
